{
  "contractName": "CvSharepoint",
  "abi": [
    {
      "anonymous": false,
      "inputs": [
        {
          "indexed": false,
          "internalType": "uint256",
          "name": "cvId",
          "type": "uint256"
        }
      ],
      "name": "CvAdded",
      "type": "event"
    },
    {
      "constant": true,
      "inputs": [
        {
          "internalType": "string",
          "name": "",
          "type": "string"
        }
      ],
      "name": "cvToOwner",
      "outputs": [
        {
          "internalType": "address",
          "name": "",
          "type": "address"
        }
      ],
      "payable": false,
      "stateMutability": "view",
      "type": "function"
    },
    {
      "constant": true,
      "inputs": [
        {
          "internalType": "uint256",
          "name": "",
          "type": "uint256"
        }
      ],
      "name": "ipfsCvAddresses",
      "outputs": [
        {
          "internalType": "string",
          "name": "",
          "type": "string"
        }
      ],
      "payable": false,
      "stateMutability": "view",
      "type": "function"
    },
    {
      "constant": false,
      "inputs": [
        {
          "internalType": "string",
          "name": "_ipfsAddress",
          "type": "string"
        }
      ],
      "name": "addCv",
      "outputs": [],
      "payable": false,
      "stateMutability": "nonpayable",
      "type": "function"
    },
    {
      "constant": true,
      "inputs": [
        {
          "internalType": "uint256",
          "name": "id",
          "type": "uint256"
        }
      ],
      "name": "getCvById",
      "outputs": [
        {
          "components": [
            {
              "internalType": "uint256",
              "name": "id",
              "type": "uint256"
            },
            {
              "internalType": "string",
              "name": "ipfsAddress",
              "type": "string"
            },
            {
              "internalType": "address",
              "name": "owner",
              "type": "address"
            }
          ],
          "internalType": "struct CvSharepoint.CvModel",
          "name": "",
          "type": "tuple"
        }
      ],
      "payable": false,
      "stateMutability": "view",
      "type": "function"
    },
    {
      "constant": true,
      "inputs": [],
      "name": "getCvModelList",
      "outputs": [
        {
          "components": [
            {
              "internalType": "uint256",
              "name": "id",
              "type": "uint256"
            },
            {
              "internalType": "string",
              "name": "ipfsAddress",
              "type": "string"
            },
            {
              "internalType": "address",
              "name": "owner",
              "type": "address"
            }
          ],
          "internalType": "struct CvSharepoint.CvModel[]",
          "name": "",
          "type": "tuple[]"
        }
      ],
      "payable": false,
      "stateMutability": "view",
      "type": "function"
    }
  ],
  "bytecode": "0x608060405234801561001057600080fd5b50610a44806100206000396000f3fe608060405234801561001057600080fd5b50600436106100575760003560e01c8063201c99711461005c5780635ad4d7a5146100855780638669934a146100a5578063b98fc22f146100ba578063fa6cb7ae146100da575b600080fd5b61006f61006a3660046106cb565b6100ef565b60405161007c9190610901565b60405180910390f35b6100986100933660046106cb565b6101f5565b60405161007c91906108f0565b6100ad61029b565b60405161007c91906108df565b6100cd6100c836600461068e565b61043d565b60405161007c91906108d1565b6100ed6100e836600461068e565b610463565b005b6100f7610567565b60405180606001604052808381526020016000848154811061011557fe5b600091825260209182902001805460408051601f60026000196101006001871615020190941693909304928301859004850281018501909152818152928301828280156101a35780601f10610178576101008083540402835291602001916101a3565b820191906000526020600020905b81548152906001019060200180831161018657829003601f168201915b505050505081526020016001600085815481106101bc57fe5b906000526020600020016040516101d391906108c5565b908152604051908190036020019020546001600160a01b031690529050919050565b6000818154811061020257fe5b600091825260209182902001805460408051601f60026000196101006001871615020190941693909304928301859004850281018501909152818152935090918301828280156102935780601f1061026857610100808354040283529160200191610293565b820191906000526020600020905b81548152906001019060200180831161027657829003601f168201915b505050505081565b6060806000805490506040519080825280602002602001820160405280156102dd57816020015b6102ca610567565b8152602001906001900390816102c25790505b50905060005b60005481101561043657808282815181106102fa57fe5b602090810291909101015152600080548290811061031457fe5b600091825260209182902001805460408051601f60026000196101006001871615020190941693909304928301859004850281018501909152818152928301828280156103a25780601f10610377576101008083540402835291602001916103a2565b820191906000526020600020905b81548152906001019060200180831161038557829003601f168201915b50505050508282815181106103b357fe5b6020026020010151602001819052506001600082815481106103d157fe5b906000526020600020016040516103e891906108c5565b9081526040519081900360200190205482516001600160a01b039091169083908390811061041257fe5b60209081029190910101516001600160a01b039091166040909101526001016102e3565b5090505b90565b80516020818301810180516001825292820191909301209152546001600160a01b031681565b8060006001600160a01b031660018260405161047f91906108b9565b908152604051908190036020019020546001600160a01b0316146104a257600080fd5b6000805460018181018084558380528551919290916104e8917f290decd9548b62a8d60345a988386fc84ba6bc95484008f6362f93160ef3e56301906020880190610591565b50039050336001846040516104fd91906108b9565b90815260405190819003602001812080546001600160a01b03939093166001600160a01b0319909316929092179091557f7de8649c2b762508a9202fe4a290eefa2540384ec940f6941b9739eea2cf47ea9061055a908390610912565b60405180910390a1505050565b6040518060600160405280600081526020016060815260200160006001600160a01b031681525090565b828054600181600116156101000203166002900490600052602060002090601f016020900481019282601f106105d257805160ff19168380011785556105ff565b828001600101855582156105ff579182015b828111156105ff5782518255916020019190600101906105e4565b5061060b92915061060f565b5090565b61043a91905b8082111561060b5760008155600101610615565b600082601f83011261063a57600080fd5b813561064d61064882610947565b610920565b9150808252602083016020830185838301111561066957600080fd5b6106748382846109a4565b50505092915050565b8035610688816109ea565b92915050565b6000602082840312156106a057600080fd5b813567ffffffffffffffff8111156106b757600080fd5b6106c384828501610629565b949350505050565b6000602082840312156106dd57600080fd5b60006106c3848461067d565b60006106f58383610867565b9392505050565b61070581610993565b82525050565b600061071682610981565b6107208185610985565b9350836020820285016107328561096f565b8060005b8581101561076c578484038952815161074f85826106e9565b945061075a8361096f565b60209a909a0199925050600101610736565b5091979650505050505050565b600061078482610981565b61078e818561098e565b935061079e8185602086016109b0565b9290920192915050565b60006107b382610981565b6107bd8185610985565b93506107cd8185602086016109b0565b6107d6816109e0565b9093019392505050565b6000815460018116600081146107fd57600181146108205761085f565b607f600283041661080e818761098e565b60ff198416815295508501925061085f565b6002820461082e818761098e565b955061083985610975565b60005b828110156108585781548882015260019091019060200161083c565b5050850192505b505092915050565b8051600090606084019061087b85826108b0565b506020830151848203602086015261089382826107a8565b91505060408301516108a860408601826106fc565b509392505050565b6107058161043a565b60006106f58284610779565b60006106f582846107e0565b6020810161068882846106fc565b602080825281016106f5818461070b565b602080825281016106f581846107a8565b602080825281016106f58184610867565b6020810161068882846108b0565b60405181810167ffffffffffffffff8111828210171561093f57600080fd5b604052919050565b600067ffffffffffffffff82111561095e57600080fd5b506020601f91909101601f19160190565b60200190565b60009081526020902090565b5190565b90815260200190565b919050565b60006001600160a01b038216610688565b82818337506000910152565b60005b838110156109cb5781810151838201526020016109b3565b838111156109da576000848401525b50505050565b601f01601f191690565b6109f38161043a565b81146109fe57600080fd5b5056fea365627a7a72315820426b4ffcfb78ba955b69e5edd469fba243a5dd4dcb7fd41ddc913cc64a47f7a06c6578706572696d656e74616cf564736f6c63430005100040",
  "source": "pragma solidity >=0.5.0 <0.6.0;\r\npragma experimental ABIEncoderV2;\r\n\r\ncontract CvSharepoint {\r\n  event CvAdded(uint cvId);\r\n\r\n  struct CvModel {\r\n    uint id;\r\n    string ipfsAddress;\r\n    address owner;\r\n  }\r\n\r\n  string[] public ipfsCvAddresses;\r\n  mapping(string => address) public cvToOwner;\r\n\r\n  modifier notUsed(string memory _ipfsAddress){\r\n    require(cvToOwner[_ipfsAddress] == address(0));\r\n    _;\r\n  }\r\n\r\n  function addCv(string memory _ipfsAddress) public notUsed(_ipfsAddress) {\r\n    uint id = ipfsCvAddresses.push(_ipfsAddress) - 1;\r\n    cvToOwner[_ipfsAddress] = msg.sender;\r\n    emit CvAdded(id);\r\n  }\r\n\r\n  function getCvById(uint id) external view returns (CvModel memory){\r\n    return CvModel(id, ipfsCvAddresses[id], cvToOwner[ipfsCvAddresses[id]]);\r\n  }\r\n\r\n  function getCvModelList() external view returns (CvModel[] memory){\r\n    CvModel[] memory models = new CvModel[](ipfsCvAddresses.length);\r\n    for (uint i = 0; i < ipfsCvAddresses.length; i++) {\r\n      models[i].id = i;\r\n      models[i].ipfsAddress = ipfsCvAddresses[i];\r\n      models[i].owner = cvToOwner[ipfsCvAddresses[i]];\r\n    }\r\n    return models;\r\n  }\r\n}\r\n",
  "sourcePath": "D:/Projects/Webstorm Projects/Ethereum-CV-Sharepoint/src/app/ethereum/contracts/cvsharepoint.sol",
  "compiler": {
    "name": "solc",
    "version": "0.5.16+commit.9c3226ce.Emscripten.clang"
  },
  "schemaVersion": "3.3.0",
  "updatedAt": "2020-10-13T22:49:30.247Z",
  "networkType": "ethereum",
  "devdoc": {
    "methods": {}
  },
  "userdoc": {
    "methods": {}
  }
}