{
  "contractName": "CvSharepoint",
  "abi": [
    {
      "anonymous": false,
      "inputs": [
        {
          "indexed": false,
          "internalType": "uint256",
          "name": "cvId",
          "type": "uint256"
        }
      ],
      "name": "CvAdded",
      "type": "event"
    },
    {
      "constant": true,
      "inputs": [
        {
          "internalType": "string",
          "name": "",
          "type": "string"
        }
      ],
      "name": "cvToOwner",
      "outputs": [
        {
          "internalType": "address",
          "name": "",
          "type": "address"
        }
      ],
      "payable": false,
      "stateMutability": "view",
      "type": "function"
    },
    {
      "constant": true,
      "inputs": [
        {
          "internalType": "uint256",
          "name": "",
          "type": "uint256"
        }
      ],
      "name": "ipfsCvAddresses",
      "outputs": [
        {
          "internalType": "string",
          "name": "",
          "type": "string"
        }
      ],
      "payable": false,
      "stateMutability": "view",
      "type": "function"
    },
    {
      "constant": false,
      "inputs": [
        {
          "internalType": "string",
          "name": "_ipfsAddress",
          "type": "string"
        }
      ],
      "name": "addCv",
      "outputs": [],
      "payable": false,
      "stateMutability": "nonpayable",
      "type": "function"
    },
    {
      "constant": true,
      "inputs": [
        {
          "internalType": "uint256",
          "name": "id",
          "type": "uint256"
        }
      ],
      "name": "getCvById",
      "outputs": [
        {
          "components": [
            {
              "internalType": "uint256",
              "name": "id",
              "type": "uint256"
            },
            {
              "internalType": "string",
              "name": "ipfsAddress",
              "type": "string"
            },
            {
              "internalType": "address",
              "name": "owner",
              "type": "address"
            }
          ],
          "internalType": "struct CvSharepoint.CvModel",
          "name": "",
          "type": "tuple"
        }
      ],
      "payable": false,
      "stateMutability": "view",
      "type": "function"
    },
    {
      "constant": true,
      "inputs": [],
      "name": "getCvModelList",
      "outputs": [
        {
          "components": [
            {
              "internalType": "uint256",
              "name": "id",
              "type": "uint256"
            },
            {
              "internalType": "string",
              "name": "ipfsAddress",
              "type": "string"
            },
            {
              "internalType": "address",
              "name": "owner",
              "type": "address"
            }
          ],
          "internalType": "struct CvSharepoint.CvModel[]",
          "name": "",
          "type": "tuple[]"
        }
      ],
      "payable": false,
      "stateMutability": "view",
      "type": "function"
    }
  ],
  "bytecode": "0x608060405234801561001057600080fd5b50610a04806100206000396000f3fe608060405234801561001057600080fd5b50600436106100575760003560e01c8063201c99711461005c5780635ad4d7a5146100855780638669934a146100a5578063b98fc22f146100ba578063fa6cb7ae146100da575b600080fd5b61006f61006a36600461068b565b6100ef565b60405161007c91906108c1565b60405180910390f35b61009861009336600461068b565b6101f5565b60405161007c91906108b0565b6100ad61029b565b60405161007c919061089f565b6100cd6100c836600461064e565b61043d565b60405161007c9190610891565b6100ed6100e836600461064e565b610463565b005b6100f7610527565b60405180606001604052808381526020016000848154811061011557fe5b600091825260209182902001805460408051601f60026000196101006001871615020190941693909304928301859004850281018501909152818152928301828280156101a35780601f10610178576101008083540402835291602001916101a3565b820191906000526020600020905b81548152906001019060200180831161018657829003601f168201915b505050505081526020016001600085815481106101bc57fe5b906000526020600020016040516101d39190610885565b908152604051908190036020019020546001600160a01b031690529050919050565b6000818154811061020257fe5b600091825260209182902001805460408051601f60026000196101006001871615020190941693909304928301859004850281018501909152818152935090918301828280156102935780601f1061026857610100808354040283529160200191610293565b820191906000526020600020905b81548152906001019060200180831161027657829003601f168201915b505050505081565b6060806000805490506040519080825280602002602001820160405280156102dd57816020015b6102ca610527565b8152602001906001900390816102c25790505b50905060005b60005481101561043657808282815181106102fa57fe5b602090810291909101015152600080548290811061031457fe5b600091825260209182902001805460408051601f60026000196101006001871615020190941693909304928301859004850281018501909152818152928301828280156103a25780601f10610377576101008083540402835291602001916103a2565b820191906000526020600020905b81548152906001019060200180831161038557829003601f168201915b50505050508282815181106103b357fe5b6020026020010151602001819052506001600082815481106103d157fe5b906000526020600020016040516103e89190610885565b9081526040519081900360200190205482516001600160a01b039091169083908390811061041257fe5b60209081029190910101516001600160a01b039091166040909101526001016102e3565b5090505b90565b80516020818301810180516001825292820191909301209152546001600160a01b031681565b6000805460018181018084558380528451919290916104a9917f290decd9548b62a8d60345a988386fc84ba6bc95484008f6362f93160ef3e56301906020870190610551565b50039050336001836040516104be9190610879565b90815260405190819003602001812080546001600160a01b03939093166001600160a01b0319909316929092179091557f7de8649c2b762508a9202fe4a290eefa2540384ec940f6941b9739eea2cf47ea9061051b9083906108d2565b60405180910390a15050565b6040518060600160405280600081526020016060815260200160006001600160a01b031681525090565b828054600181600116156101000203166002900490600052602060002090601f016020900481019282601f1061059257805160ff19168380011785556105bf565b828001600101855582156105bf579182015b828111156105bf5782518255916020019190600101906105a4565b506105cb9291506105cf565b5090565b61043a91905b808211156105cb57600081556001016105d5565b600082601f8301126105fa57600080fd5b813561060d61060882610907565b6108e0565b9150808252602083016020830185838301111561062957600080fd5b610634838284610964565b50505092915050565b8035610648816109aa565b92915050565b60006020828403121561066057600080fd5b813567ffffffffffffffff81111561067757600080fd5b610683848285016105e9565b949350505050565b60006020828403121561069d57600080fd5b6000610683848461063d565b60006106b58383610827565b9392505050565b6106c581610953565b82525050565b60006106d682610941565b6106e08185610945565b9350836020820285016106f28561092f565b8060005b8581101561072c578484038952815161070f85826106a9565b945061071a8361092f565b60209a909a01999250506001016106f6565b5091979650505050505050565b600061074482610941565b61074e818561094e565b935061075e818560208601610970565b9290920192915050565b600061077382610941565b61077d8185610945565b935061078d818560208601610970565b610796816109a0565b9093019392505050565b6000815460018116600081146107bd57600181146107e05761081f565b607f60028304166107ce818761094e565b60ff198416815295508501925061081f565b600282046107ee818761094e565b95506107f985610935565b60005b82811015610818578154888201526001909101906020016107fc565b5050850192505b505092915050565b8051600090606084019061083b8582610870565b50602083015184820360208601526108538282610768565b915050604083015161086860408601826106bc565b509392505050565b6106c58161043a565b60006106b58284610739565b60006106b582846107a0565b6020810161064882846106bc565b602080825281016106b581846106cb565b602080825281016106b58184610768565b602080825281016106b58184610827565b602081016106488284610870565b60405181810167ffffffffffffffff811182821017156108ff57600080fd5b604052919050565b600067ffffffffffffffff82111561091e57600080fd5b506020601f91909101601f19160190565b60200190565b60009081526020902090565b5190565b90815260200190565b919050565b60006001600160a01b038216610648565b82818337506000910152565b60005b8381101561098b578181015183820152602001610973565b8381111561099a576000848401525b50505050565b601f01601f191690565b6109b38161043a565b81146109be57600080fd5b5056fea365627a7a72315820531ec067b3af7523e5048341b5cb159ae757ea105cf024afce5863ab841eba0f6c6578706572696d656e74616cf564736f6c63430005100040",
  "source": "pragma solidity >=0.5.0 <0.6.0;\r\npragma experimental ABIEncoderV2;\r\n\r\ncontract CvSharepoint {\r\n  event CvAdded(uint cvId);\r\n\r\n  struct CvModel {\r\n    uint id;\r\n    string ipfsAddress;\r\n    address owner;\r\n  }\r\n\r\n  string[] public ipfsCvAddresses;\r\n  mapping(string => address) public cvToOwner;\r\n\r\n\r\n  function addCv(string memory _ipfsAddress) public {\r\n    uint id = ipfsCvAddresses.push(_ipfsAddress) - 1;\r\n    cvToOwner[_ipfsAddress] = msg.sender;\r\n    emit CvAdded(id);\r\n  }\r\n\r\n  function getCvById(uint id) external view returns (CvModel memory){\r\n    return CvModel(id, ipfsCvAddresses[id], cvToOwner[ipfsCvAddresses[id]]);\r\n  }\r\n\r\n  function getCvModelList() external view returns (CvModel[] memory){\r\n    CvModel[] memory models = new CvModel[](ipfsCvAddresses.length);\r\n    for (uint i = 0; i < ipfsCvAddresses.length; i++) {\r\n      models[i].id = i;\r\n      models[i].ipfsAddress = ipfsCvAddresses[i];\r\n      models[i].owner = cvToOwner[ipfsCvAddresses[i]];\r\n    }\r\n    return models;\r\n  }\r\n}\r\n",
  "sourcePath": "D:/Projects/Webstorm Projects/Ethereum-CV-Sharepoint/src/app/ethereum/contracts/cvsharepoint.sol",
  "compiler": {
    "name": "solc",
    "version": "0.5.16+commit.9c3226ce.Emscripten.clang"
  },
  "schemaVersion": "3.3.0",
  "updatedAt": "2020-10-13T18:33:31.620Z",
  "networkType": "ethereum",
  "devdoc": {
    "methods": {}
  },
  "userdoc": {
    "methods": {}
  }
}